{
  "_format": "hh-sol-artifact-1",
  "contractName": "CrowdfundingFactoryContract",
  "sourceName": "contracts/CrowdfundingFactoryContract.sol",
  "abi": [
    {
      "inputs": [
        {
          "internalType": "address",
          "name": "_fundWithEtherImplementationAddress",
          "type": "address"
        }
      ],
      "stateMutability": "nonpayable",
      "type": "constructor"
    },
    {
      "anonymous": false,
      "inputs": [
        {
          "indexed": true,
          "internalType": "address",
          "name": "proxyAddress",
          "type": "address"
        },
        {
          "indexed": true,
          "internalType": "address",
          "name": "ownerAddress",
          "type": "address"
        },
        {
          "indexed": true,
          "internalType": "address",
          "name": "receiver",
          "type": "address"
        },
        {
          "indexed": false,
          "internalType": "uint8",
          "name": "typeOfFunding",
          "type": "uint8"
        },
        {
          "indexed": false,
          "internalType": "uint256",
          "name": "createdAt",
          "type": "uint256"
        },
        {
          "indexed": false,
          "internalType": "uint256",
          "name": "targetAmount",
          "type": "uint256"
        },
        {
          "indexed": false,
          "internalType": "string",
          "name": "ipfsLink",
          "type": "string"
        }
      ],
      "name": "FundCreated",
      "type": "event"
    },
    {
      "anonymous": false,
      "inputs": [
        {
          "indexed": true,
          "internalType": "address",
          "name": "previousOwner",
          "type": "address"
        },
        {
          "indexed": true,
          "internalType": "address",
          "name": "newOwner",
          "type": "address"
        }
      ],
      "name": "OwnershipTransferred",
      "type": "event"
    },
    {
      "inputs": [
        {
          "internalType": "uint8",
          "name": "_typeOfFunding",
          "type": "uint8"
        },
        {
          "internalType": "uint256",
          "name": "_targetAmount",
          "type": "uint256"
        },
        {
          "internalType": "string",
          "name": "_ipfsLink",
          "type": "string"
        },
        {
          "internalType": "address",
          "name": "_receiver",
          "type": "address"
        }
      ],
      "name": "createFund",
      "outputs": [
        {
          "internalType": "address",
          "name": "",
          "type": "address"
        }
      ],
      "stateMutability": "nonpayable",
      "type": "function"
    },
    {
      "inputs": [],
      "name": "fundWithEtherImplementationAddress",
      "outputs": [
        {
          "internalType": "address",
          "name": "",
          "type": "address"
        }
      ],
      "stateMutability": "view",
      "type": "function"
    },
    {
      "inputs": [],
      "name": "fundWithTokenImplementationAddress",
      "outputs": [
        {
          "internalType": "address",
          "name": "",
          "type": "address"
        }
      ],
      "stateMutability": "view",
      "type": "function"
    },
    {
      "inputs": [],
      "name": "owner",
      "outputs": [
        {
          "internalType": "address",
          "name": "",
          "type": "address"
        }
      ],
      "stateMutability": "view",
      "type": "function"
    },
    {
      "inputs": [],
      "name": "renounceOwnership",
      "outputs": [],
      "stateMutability": "nonpayable",
      "type": "function"
    },
    {
      "inputs": [
        {
          "internalType": "address",
          "name": "newOwner",
          "type": "address"
        }
      ],
      "name": "transferOwnership",
      "outputs": [],
      "stateMutability": "nonpayable",
      "type": "function"
    },
    {
      "inputs": [
        {
          "internalType": "address",
          "name": "_newImplementationAddress",
          "type": "address"
        },
        {
          "internalType": "uint8",
          "name": "_typeofFunding",
          "type": "uint8"
        }
      ],
      "name": "updateTemplateAddresses",
      "outputs": [],
      "stateMutability": "nonpayable",
      "type": "function"
    }
  ],
  "bytecode": "0x608060405234801561001057600080fd5b506040516107e53803806107e583398101604081905261002f916100ad565b6100383361005d565b600180546001600160a01b0319166001600160a01b03929092169190911790556100dd565b600080546001600160a01b038381166001600160a01b0319831681178455604051919092169283917f8be0079c531659141344cd1fd0a4f28419497f9722a3daafe3b4186f6b6457e09190a35050565b6000602082840312156100bf57600080fd5b81516001600160a01b03811681146100d657600080fd5b9392505050565b6106f9806100ec6000396000f3fe608060405234801561001057600080fd5b506004361061006d5760003560e01c8063715018a614610072578063809426af1461007c5780638da5cb5b1461008f578063bcaaa7e7146100b8578063dca33a03146100cb578063ddf0c9bc146100de578063f2fde38b146100f1575b600080fd5b61007a610104565b005b61007a61008a3660046104c8565b610118565b6000546001600160a01b03165b6040516001600160a01b03909116815260200160405180910390f35b61009c6100c6366004610511565b610175565b60015461009c906001600160a01b031681565b60025461009c906001600160a01b031681565b61007a6100ff3660046105ed565b6102e3565b61010c61035c565b61011660006103b6565b565b61012061035c565b8060ff1660010361014a57600180546001600160a01b0319166001600160a01b0384161790555050565b8060ff1660020361017157600280546001600160a01b0319166001600160a01b0384161790555b5050565b60008460ff166001148061018c57508460ff166002145b6101d75760405162461bcd60e51b8152602060048201526017602482015276496e76616c69642074797065206f662066756e64696e6760481b60448201526064015b60405180910390fd5b8460ff166001036102c3576001546000906101fa906001600160a01b0316610406565b604051636dd17d7f60e11b81529091506001600160a01b0382169063dba2fafe9061022f908690899089903390600401610655565b600060405180830381600087803b15801561024957600080fd5b505af115801561025d573d6000803e3d6000fd5b50505050826001600160a01b0316336001600160a01b0316826001600160a01b03167fa2a93891ac5c9f08fa11f218b6c6c95f3ebc4ecb9b4d87f91604d4a60df6f96689428a8a6040516102b49493929190610691565b60405180910390a490506102db565b6002546000906101fa906001600160a01b0316610406565b949350505050565b6102eb61035c565b6001600160a01b0381166103505760405162461bcd60e51b815260206004820152602660248201527f4f776e61626c653a206e6577206f776e657220697320746865207a65726f206160448201526564647265737360d01b60648201526084016101ce565b610359816103b6565b50565b6000546001600160a01b031633146101165760405162461bcd60e51b815260206004820181905260248201527f4f776e61626c653a2063616c6c6572206973206e6f7420746865206f776e657260448201526064016101ce565b600080546001600160a01b038381166001600160a01b0319831681178455604051919092169283917f8be0079c531659141344cd1fd0a4f28419497f9722a3daafe3b4186f6b6457e09190a35050565b6000763d602d80600a3d3981f3363d3d373d3d3d363d730000008260601b60e81c176000526e5af43d82803e903d91602b57fd5bf38260781b17602052603760096000f090506001600160a01b03811661049b5760405162461bcd60e51b8152602060048201526016602482015275115490cc4c4d8dce8818dc99585d194819985a5b195960521b60448201526064016101ce565b919050565b80356001600160a01b038116811461049b57600080fd5b803560ff8116811461049b57600080fd5b600080604083850312156104db57600080fd5b6104e4836104a0565b91506104f2602084016104b7565b90509250929050565b634e487b7160e01b600052604160045260246000fd5b6000806000806080858703121561052757600080fd5b610530856104b7565b935060208501359250604085013567ffffffffffffffff8082111561055457600080fd5b818701915087601f83011261056857600080fd5b81358181111561057a5761057a6104fb565b604051601f8201601f19908116603f011681019083821181831017156105a2576105a26104fb565b816040528281528a60208487010111156105bb57600080fd5b8260208601602083013760006020848301015280965050505050506105e2606086016104a0565b905092959194509250565b6000602082840312156105ff57600080fd5b610608826104a0565b9392505050565b6000815180845260005b8181101561063557602081850181015186830182015201610619565b506000602082860101526020601f19601f83011685010191505092915050565b600060018060a01b0380871683528560208401526080604084015261067d608084018661060f565b915080841660608401525095945050505050565b60ff851681528360208201528260408201526080606082015260006106b9608083018461060f565b969550505050505056fea2646970667358221220fb34b54f6ed05a6cba235402c4845b3b3aceb50ac2f6fb7f3d37f4707883d55c64736f6c63430008120033",
  "linkReferences": {},
  "deployedLinkReferences": {}
}