{
  "_format": "hh-sol-artifact-1",
  "contractName": "CrowdfundingWithEth",
  "sourceName": "contracts/fundWithEther/CrowdfundingWithEth.sol",
  "abi": [
    {
      "inputs": [
        {
          "internalType": "address",
          "name": "_AAVE_V2_ADDRESS",
          "type": "address"
        },
        {
          "internalType": "address",
          "name": "_AAVE_ATOKEN_ADDRESS",
          "type": "address"
        },
        {
          "internalType": "address",
          "name": "_LENDING_POOL_PROVIDER_ADDRESS",
          "type": "address"
        }
      ],
      "stateMutability": "nonpayable",
      "type": "constructor"
    },
    {
      "anonymous": false,
      "inputs": [
        {
          "indexed": true,
          "internalType": "address",
          "name": "owner",
          "type": "address"
        },
        {
          "indexed": true,
          "internalType": "address",
          "name": "approved",
          "type": "address"
        },
        {
          "indexed": true,
          "internalType": "uint256",
          "name": "tokenId",
          "type": "uint256"
        }
      ],
      "name": "Approval",
      "type": "event"
    },
    {
      "anonymous": false,
      "inputs": [
        {
          "indexed": true,
          "internalType": "address",
          "name": "owner",
          "type": "address"
        },
        {
          "indexed": true,
          "internalType": "address",
          "name": "operator",
          "type": "address"
        },
        {
          "indexed": false,
          "internalType": "bool",
          "name": "approved",
          "type": "bool"
        }
      ],
      "name": "ApprovalForAll",
      "type": "event"
    },
    {
      "anonymous": false,
      "inputs": [
        {
          "indexed": false,
          "internalType": "uint256",
          "name": "_fromTokenId",
          "type": "uint256"
        },
        {
          "indexed": false,
          "internalType": "uint256",
          "name": "_toTokenId",
          "type": "uint256"
        }
      ],
      "name": "BatchMetadataUpdate",
      "type": "event"
    },
    {
      "anonymous": false,
      "inputs": [
        {
          "indexed": true,
          "internalType": "address",
          "name": "contributor",
          "type": "address"
        },
        {
          "indexed": false,
          "internalType": "uint256",
          "name": "tokenId",
          "type": "uint256"
        },
        {
          "indexed": false,
          "internalType": "uint256",
          "name": "contribution",
          "type": "uint256"
        }
      ],
      "name": "CertificateClaimed",
      "type": "event"
    },
    {
      "anonymous": false,
      "inputs": [
        {
          "indexed": true,
          "internalType": "address",
          "name": "contributor",
          "type": "address"
        },
        {
          "indexed": false,
          "internalType": "uint256",
          "name": "amount",
          "type": "uint256"
        }
      ],
      "name": "Contribute",
      "type": "event"
    },
    {
      "anonymous": false,
      "inputs": [
        {
          "indexed": false,
          "internalType": "uint8",
          "name": "version",
          "type": "uint8"
        }
      ],
      "name": "Initialized",
      "type": "event"
    },
    {
      "anonymous": false,
      "inputs": [
        {
          "indexed": false,
          "internalType": "uint256",
          "name": "_tokenId",
          "type": "uint256"
        }
      ],
      "name": "MetadataUpdate",
      "type": "event"
    },
    {
      "anonymous": false,
      "inputs": [
        {
          "indexed": true,
          "internalType": "address",
          "name": "previousOwner",
          "type": "address"
        },
        {
          "indexed": true,
          "internalType": "address",
          "name": "newOwner",
          "type": "address"
        }
      ],
      "name": "OwnershipTransferred",
      "type": "event"
    },
    {
      "anonymous": false,
      "inputs": [
        {
          "indexed": true,
          "internalType": "address",
          "name": "proxyAddress",
          "type": "address"
        },
        {
          "indexed": true,
          "internalType": "address",
          "name": "receiver",
          "type": "address"
        },
        {
          "indexed": false,
          "internalType": "uint256",
          "name": "timestamp",
          "type": "uint256"
        }
      ],
      "name": "ProjectCompleted",
      "type": "event"
    },
    {
      "anonymous": false,
      "inputs": [
        {
          "indexed": true,
          "internalType": "address",
          "name": "proxyAddress",
          "type": "address"
        },
        {
          "indexed": false,
          "internalType": "uint256",
          "name": "timestamp",
          "type": "uint256"
        },
        {
          "indexed": false,
          "internalType": "uint8",
          "name": "invalidatorType",
          "type": "uint8"
        }
      ],
      "name": "ProjectInvalidated",
      "type": "event"
    },
    {
      "anonymous": false,
      "inputs": [
        {
          "indexed": true,
          "internalType": "address",
          "name": "from",
          "type": "address"
        },
        {
          "indexed": true,
          "internalType": "address",
          "name": "to",
          "type": "address"
        },
        {
          "indexed": true,
          "internalType": "uint256",
          "name": "tokenId",
          "type": "uint256"
        }
      ],
      "name": "Transfer",
      "type": "event"
    },
    {
      "anonymous": false,
      "inputs": [
        {
          "indexed": true,
          "internalType": "address",
          "name": "contributor",
          "type": "address"
        },
        {
          "indexed": false,
          "internalType": "uint256",
          "name": "amount",
          "type": "uint256"
        }
      ],
      "name": "WithdrawContributions",
      "type": "event"
    },
    {
      "anonymous": false,
      "inputs": [
        {
          "indexed": false,
          "internalType": "address",
          "name": "receiver",
          "type": "address"
        },
        {
          "indexed": false,
          "internalType": "uint256",
          "name": "amount",
          "type": "uint256"
        }
      ],
      "name": "WithdrawFunds",
      "type": "event"
    },
    {
      "inputs": [],
      "name": "amountRaised",
      "outputs": [
        {
          "internalType": "uint256",
          "name": "",
          "type": "uint256"
        }
      ],
      "stateMutability": "view",
      "type": "function"
    },
    {
      "inputs": [
        {
          "internalType": "address",
          "name": "to",
          "type": "address"
        },
        {
          "internalType": "uint256",
          "name": "tokenId",
          "type": "uint256"
        }
      ],
      "name": "approve",
      "outputs": [],
      "stateMutability": "nonpayable",
      "type": "function"
    },
    {
      "inputs": [
        {
          "internalType": "address",
          "name": "owner",
          "type": "address"
        }
      ],
      "name": "balanceOf",
      "outputs": [
        {
          "internalType": "uint256",
          "name": "",
          "type": "uint256"
        }
      ],
      "stateMutability": "view",
      "type": "function"
    },
    {
      "inputs": [
        {
          "internalType": "address",
          "name": "",
          "type": "address"
        }
      ],
      "name": "certificateClaimed",
      "outputs": [
        {
          "internalType": "bool",
          "name": "",
          "type": "bool"
        }
      ],
      "stateMutability": "view",
      "type": "function"
    },
    {
      "inputs": [],
      "name": "claimCertificate",
      "outputs": [],
      "stateMutability": "nonpayable",
      "type": "function"
    },
    {
      "inputs": [],
      "name": "contribute",
      "outputs": [],
      "stateMutability": "payable",
      "type": "function"
    },
    {
      "inputs": [
        {
          "internalType": "address",
          "name": "",
          "type": "address"
        }
      ],
      "name": "contributions",
      "outputs": [
        {
          "internalType": "uint256",
          "name": "",
          "type": "uint256"
        }
      ],
      "stateMutability": "view",
      "type": "function"
    },
    {
      "inputs": [],
      "name": "creatorAddress",
      "outputs": [
        {
          "internalType": "address",
          "name": "",
          "type": "address"
        }
      ],
      "stateMutability": "view",
      "type": "function"
    },
    {
      "inputs": [],
      "name": "fundsWithdrawn",
      "outputs": [
        {
          "internalType": "bool",
          "name": "",
          "type": "bool"
        }
      ],
      "stateMutability": "view",
      "type": "function"
    },
    {
      "inputs": [
        {
          "internalType": "uint256",
          "name": "tokenId",
          "type": "uint256"
        }
      ],
      "name": "getApproved",
      "outputs": [
        {
          "internalType": "address",
          "name": "",
          "type": "address"
        }
      ],
      "stateMutability": "view",
      "type": "function"
    },
    {
      "inputs": [
        {
          "internalType": "address",
          "name": "_receiver",
          "type": "address"
        },
        {
          "internalType": "uint256",
          "name": "_targetAmount",
          "type": "uint256"
        },
        {
          "internalType": "string",
          "name": "_ipfsLink",
          "type": "string"
        },
        {
          "internalType": "address",
          "name": "_creatorAddress",
          "type": "address"
        }
      ],
      "name": "initialize",
      "outputs": [],
      "stateMutability": "nonpayable",
      "type": "function"
    },
    {
      "inputs": [],
      "name": "invalidateProject",
      "outputs": [],
      "stateMutability": "nonpayable",
      "type": "function"
    },
    {
      "inputs": [],
      "name": "ipfsLink",
      "outputs": [
        {
          "internalType": "string",
          "name": "",
          "type": "string"
        }
      ],
      "stateMutability": "view",
      "type": "function"
    },
    {
      "inputs": [
        {
          "internalType": "address",
          "name": "owner",
          "type": "address"
        },
        {
          "internalType": "address",
          "name": "operator",
          "type": "address"
        }
      ],
      "name": "isApprovedForAll",
      "outputs": [
        {
          "internalType": "bool",
          "name": "",
          "type": "bool"
        }
      ],
      "stateMutability": "view",
      "type": "function"
    },
    {
      "inputs": [],
      "name": "name",
      "outputs": [
        {
          "internalType": "string",
          "name": "",
          "type": "string"
        }
      ],
      "stateMutability": "view",
      "type": "function"
    },
    {
      "inputs": [],
      "name": "owner",
      "outputs": [
        {
          "internalType": "address",
          "name": "",
          "type": "address"
        }
      ],
      "stateMutability": "view",
      "type": "function"
    },
    {
      "inputs": [
        {
          "internalType": "uint256",
          "name": "tokenId",
          "type": "uint256"
        }
      ],
      "name": "ownerOf",
      "outputs": [
        {
          "internalType": "address",
          "name": "",
          "type": "address"
        }
      ],
      "stateMutability": "view",
      "type": "function"
    },
    {
      "inputs": [],
      "name": "projectStatus",
      "outputs": [
        {
          "internalType": "enum CrowdfundingWithEth.Status",
          "name": "",
          "type": "uint8"
        }
      ],
      "stateMutability": "view",
      "type": "function"
    },
    {
      "inputs": [],
      "name": "receiver",
      "outputs": [
        {
          "internalType": "address",
          "name": "",
          "type": "address"
        }
      ],
      "stateMutability": "view",
      "type": "function"
    },
    {
      "inputs": [],
      "name": "renounceOwnership",
      "outputs": [],
      "stateMutability": "nonpayable",
      "type": "function"
    },
    {
      "inputs": [
        {
          "internalType": "address",
          "name": "from",
          "type": "address"
        },
        {
          "internalType": "address",
          "name": "to",
          "type": "address"
        },
        {
          "internalType": "uint256",
          "name": "tokenId",
          "type": "uint256"
        }
      ],
      "name": "safeTransferFrom",
      "outputs": [],
      "stateMutability": "nonpayable",
      "type": "function"
    },
    {
      "inputs": [
        {
          "internalType": "address",
          "name": "from",
          "type": "address"
        },
        {
          "internalType": "address",
          "name": "to",
          "type": "address"
        },
        {
          "internalType": "uint256",
          "name": "tokenId",
          "type": "uint256"
        },
        {
          "internalType": "bytes",
          "name": "data",
          "type": "bytes"
        }
      ],
      "name": "safeTransferFrom",
      "outputs": [],
      "stateMutability": "nonpayable",
      "type": "function"
    },
    {
      "inputs": [
        {
          "internalType": "address",
          "name": "operator",
          "type": "address"
        },
        {
          "internalType": "bool",
          "name": "approved",
          "type": "bool"
        }
      ],
      "name": "setApprovalForAll",
      "outputs": [],
      "stateMutability": "nonpayable",
      "type": "function"
    },
    {
      "inputs": [
        {
          "internalType": "bytes4",
          "name": "interfaceId",
          "type": "bytes4"
        }
      ],
      "name": "supportsInterface",
      "outputs": [
        {
          "internalType": "bool",
          "name": "",
          "type": "bool"
        }
      ],
      "stateMutability": "view",
      "type": "function"
    },
    {
      "inputs": [],
      "name": "symbol",
      "outputs": [
        {
          "internalType": "string",
          "name": "",
          "type": "string"
        }
      ],
      "stateMutability": "view",
      "type": "function"
    },
    {
      "inputs": [],
      "name": "targetAmount",
      "outputs": [
        {
          "internalType": "uint256",
          "name": "",
          "type": "uint256"
        }
      ],
      "stateMutability": "view",
      "type": "function"
    },
    {
      "inputs": [
        {
          "internalType": "uint256",
          "name": "tokenId",
          "type": "uint256"
        }
      ],
      "name": "tokenURI",
      "outputs": [
        {
          "internalType": "string",
          "name": "",
          "type": "string"
        }
      ],
      "stateMutability": "view",
      "type": "function"
    },
    {
      "inputs": [],
      "name": "totalCertificates",
      "outputs": [
        {
          "internalType": "uint256",
          "name": "",
          "type": "uint256"
        }
      ],
      "stateMutability": "view",
      "type": "function"
    },
    {
      "inputs": [
        {
          "internalType": "address",
          "name": "from",
          "type": "address"
        },
        {
          "internalType": "address",
          "name": "to",
          "type": "address"
        },
        {
          "internalType": "uint256",
          "name": "tokenId",
          "type": "uint256"
        }
      ],
      "name": "transferFrom",
      "outputs": [],
      "stateMutability": "nonpayable",
      "type": "function"
    },
    {
      "inputs": [
        {
          "internalType": "address",
          "name": "newOwner",
          "type": "address"
        }
      ],
      "name": "transferOwnership",
      "outputs": [],
      "stateMutability": "nonpayable",
      "type": "function"
    },
    {
      "inputs": [],
      "name": "withdrawContributions",
      "outputs": [],
      "stateMutability": "nonpayable",
      "type": "function"
    },
    {
      "inputs": [],
      "name": "withdrawFunds",
      "outputs": [],
      "stateMutability": "nonpayable",
      "type": "function"
    },
    {
      "stateMutability": "payable",
      "type": "receive"
    }
  ],
  "bytecode": "0x6101006040523480156200001257600080fd5b506040516200303c3803806200303c8339810160408190526200003591620001e5565b6040518060400160405280601981526020017f50617274696369706174696f6e204365727469666963617465000000000000008152506040518060400160405280600481526020016310d1549560e21b815250620000a26200009c620000fb60201b60201c565b620000ff565b6001620000b08382620002d4565b506002620000bf8282620002d4565b5050506001600160a01b0380841660805282811660a052811660c052620000e56200015a565b6001600160a01b031660e05250620003c5915050565b3390565b600080546001600160a01b038381166201000081810262010000600160b01b0319851617855560405193049190911692909183917f8be0079c531659141344cd1fd0a4f28419497f9722a3daafe3b4186f6b6457e091a35050565b600060c0516001600160a01b0316630261bf8b6040518163ffffffff1660e01b8152600401602060405180830381865afa1580156200019d573d6000803e3d6000fd5b505050506040513d601f19601f82011682018060405250810190620001c39190620003a0565b905090565b80516001600160a01b0381168114620001e057600080fd5b919050565b600080600060608486031215620001fb57600080fd5b6200020684620001c8565b92506200021660208501620001c8565b91506200022660408501620001c8565b90509250925092565b634e487b7160e01b600052604160045260246000fd5b600181811c908216806200025a57607f821691505b6020821081036200027b57634e487b7160e01b600052602260045260246000fd5b50919050565b601f821115620002cf57600081815260208120601f850160051c81016020861015620002aa5750805b601f850160051c820191505b81811015620002cb57828155600101620002b6565b5050505b505050565b81516001600160401b03811115620002f057620002f06200022f565b620003088162000301845462000245565b8462000281565b602080601f831160018114620003405760008415620003275750858301515b600019600386901b1c1916600185901b178555620002cb565b600085815260208120601f198616915b82811015620003715788860151825594840194600190910190840162000350565b5085821015620003905787850151600019600388901b60f8161c191681555b5050505050600190811b01905550565b600060208284031215620003b357600080fd5b620003be82620001c8565b9392505050565b60805160a05160c05160e051612c1d6200041f60003960008181610a4501528181610c9f0152611116015260005050600061137b015260008181610a1001528181610c720152818161114b015261134b0152612c1d6000f3fe6080604052600436106101a75760003560e01c80637b3e5e7b116100e2578063c87b56dd11610085578063c87b56dd146104aa578063d7bb99ba146104ca578063dba2fafe146104d2578063de9e855a146104f2578063e927fc5c14610507578063e985e9c514610527578063f2fde38b14610547578063f7260d3e1461056757600080fd5b80637b3e5e7b146103c55780637fea4aa4146103db5780638da5cb5b1461040b578063953b8fb81461042057806395d89b4114610436578063a22cb4651461044b578063ac307fcf1461046b578063b88d4fde1461048a57600080fd5b806324600fc31161014a57806324600fc3146102d55780632b9d8c9a146102ea57806342842e0e146102ff57806342e94c901461031f578063596b772f1461035a5780636352211e1461037057806370a0823114610390578063715018a6146103b057600080fd5b806301ffc9a7146101b357806302f2c5e0146101e857806306fdde03146101ff578063081812fc14610221578063095ea7b3146102595780631ab33308146102795780632108af09146102a057806323b872dd146102b557600080fd5b366101ae57005b600080fd5b3480156101bf57600080fd5b506101d36101ce3660046121cf565b610587565b60405190151581526020015b60405180910390f35b3480156101f457600080fd5b506101fd6105b2565b005b34801561020b57600080fd5b5061021461075e565b6040516101df919061223c565b34801561022d57600080fd5b5061024161023c36600461224f565b6107f0565b6040516001600160a01b0390911681526020016101df565b34801561026557600080fd5b506101fd610274366004612284565b610817565b34801561028557600080fd5b50600c546102939060ff1681565b6040516101df91906122c4565b3480156102ac57600080fd5b506101fd61092c565b3480156102c157600080fd5b506101fd6102d03660046122ec565b610b1a565b3480156102e157600080fd5b506101fd610b4b565b3480156102f657600080fd5b50610214610d69565b34801561030b57600080fd5b506101fd61031a3660046122ec565b610df7565b34801561032b57600080fd5b5061034c61033a366004612328565b600e6020526000908152604090205481565b6040519081526020016101df565b34801561036657600080fd5b5061034c60105481565b34801561037c57600080fd5b5061024161038b36600461224f565b610e12565b34801561039c57600080fd5b5061034c6103ab366004612328565b610e47565b3480156103bc57600080fd5b506101fd610ecd565b3480156103d157600080fd5b5061034c600b5481565b3480156103e757600080fd5b506101d36103f6366004612328565b600f6020526000908152604090205460ff1681565b34801561041757600080fd5b50610241610ee1565b34801561042c57600080fd5b5061034c600a5481565b34801561044257600080fd5b50610214610ef6565b34801561045757600080fd5b506101fd610466366004612351565b610f05565b34801561047757600080fd5b50600c546101d390610100900460ff1681565b34801561049657600080fd5b506101fd6104a5366004612414565b610f14565b3480156104b657600080fd5b506102146104c536600461224f565b610f4c565b6101fd61105c565b3480156104de57600080fd5b506101fd6104ed366004612490565b61123d565b3480156104fe57600080fd5b506101fd611451565b34801561051357600080fd5b50600854610241906001600160a01b031681565b34801561053357600080fd5b506101d361054236600461250c565b611553565b34801561055357600080fd5b506101fd610562366004612328565b611581565b34801561057357600080fd5b50600954610241906001600160a01b031681565b60006001600160e01b03198216632483248360e11b14806105ac57506105ac826115fa565b92915050565b336000908152600e602052604090205461060b5760405162461bcd60e51b81526020600482015260156024820152744e6f20636f6e747269627574696f6e73206d61646560581b60448201526064015b60405180910390fd5b6001600c5460ff166002811115610624576106246122ae565b146106415760405162461bcd60e51b81526004016106029061253f565b336000908152600f602052604090205460ff16156106ad5760405162461bcd60e51b8152602060048201526024808201527f43657274696669636174652068617320616c7265616479206265656e20636c616044820152631a5b595960e21b6064820152608401610602565b336000908152600f60205260408120805460ff191660019081179091556010546106d69161258c565b90506106e2338261164a565b336000908152600e60205260409020546106fd908290611664565b6010805490600061070d8361259f565b9091555050336000818152600e6020908152604091829020548251858152918201527f1f7348089f1aca3f3db011a8d0170871f0c80633a66c7e4a09ed08238241842691015b60405180910390a250565b60606001805461076d906125b8565b80601f0160208091040260200160405190810160405280929190818152602001828054610799906125b8565b80156107e65780601f106107bb576101008083540402835291602001916107e6565b820191906000526020600020905b8154815290600101906020018083116107c957829003601f168201915b5050505050905090565b60006107fb826116c9565b506000908152600560205260409020546001600160a01b031690565b600061082282610e12565b9050806001600160a01b0316836001600160a01b03160361088f5760405162461bcd60e51b815260206004820152602160248201527f4552433732313a20617070726f76616c20746f2063757272656e74206f776e656044820152603960f91b6064820152608401610602565b336001600160a01b03821614806108ab57506108ab8133611553565b61091d5760405162461bcd60e51b815260206004820152603d60248201527f4552433732313a20617070726f76652063616c6c6572206973206e6f7420746f60448201527f6b656e206f776e6572206f7220617070726f76656420666f7220616c6c0000006064820152608401610602565b61092783836116ee565b505050565b6002600c5460ff166002811115610945576109456122ae565b146109925760405162461bcd60e51b815260206004820152601c60248201527f50726f6a65637420737461747573206973206e6f74206661696c6564000000006044820152606401610602565b336000908152600e60205260409020546109ee5760405162461bcd60e51b815260206004820152601c60248201527f4e6f20636f6e747269627574696f6e7320746f207769746864726177000000006044820152606401610602565b336000908152600e6020526040808220805492905551630402806960e51b81527f00000000000000000000000000000000000000000000000000000000000000006001600160a01b0316906380500d2090610a71907f000000000000000000000000000000000000000000000000000000000000000090859030906004016125f2565b600060405180830381600087803b158015610a8b57600080fd5b505af1158015610a9f573d6000803e3d6000fd5b505060405133925083156108fc02915083906000818181858888f19350505050158015610ad0573d6000803e3d6000fd5b5080600b6000828254610ae39190612615565b909155505060405181815233907f1b14f2015278abe4c6bc33ffa35ce36530480260a6f4ba39c499c6b1ea26dee490602001610753565b610b24338261175c565b610b405760405162461bcd60e51b815260040161060290612628565b6109278383836117ba565b6001600c5460ff166002811115610b6457610b646122ae565b14610b815760405162461bcd60e51b81526004016106029061253f565b6009546001600160a01b03163314610be75760405162461bcd60e51b8152602060048201526024808201527f4f6e6c79207468652072656365697665722063616e2077697468647261772066604482015263756e647360e01b6064820152608401610602565b600c54610100900460ff1615610c495760405162461bcd60e51b815260206004820152602160248201527f46756e6473206861766520616c7265616479206265656e2077697468647261776044820152603760f91b6064820152608401610602565b600c805461ff001916610100179055600b54604051630402806960e51b81526001600160a01b037f000000000000000000000000000000000000000000000000000000000000000016916380500d2091610cc9917f00000000000000000000000000000000000000000000000000000000000000009130906004016125f2565b600060405180830381600087803b158015610ce357600080fd5b505af1158015610cf7573d6000803e3d6000fd5b5050600b5460405133935081156108fc0292506000818181858888f19350505050158015610d29573d6000803e3d6000fd5b50600b546040805133815260208101929092527f21901fa892c430ea8bd38b9390225ac8e67eac75ee10ffba16feefc539a288f9910160405180910390a1565b600d8054610d76906125b8565b80601f0160208091040260200160405190810160405280929190818152602001828054610da2906125b8565b8015610def5780601f10610dc457610100808354040283529160200191610def565b820191906000526020600020905b815481529060010190602001808311610dd257829003601f168201915b505050505081565b61092783838360405180602001604052806000815250610f14565b6000818152600360205260408120546001600160a01b0316806105ac5760405162461bcd60e51b815260040161060290612675565b60006001600160a01b038216610eb15760405162461bcd60e51b815260206004820152602960248201527f4552433732313a2061646472657373207a65726f206973206e6f7420612076616044820152683634b21037bbb732b960b91b6064820152608401610602565b506001600160a01b031660009081526004602052604090205490565b610ed561191e565b610edf600061197d565b565b6000546201000090046001600160a01b031690565b60606002805461076d906125b8565b610f103383836119d8565b5050565b610f1e338361175c565b610f3a5760405162461bcd60e51b815260040161060290612628565b610f4684848484611aa2565b50505050565b6060610f57826116c9565b60008281526007602052604081208054610f70906125b8565b80601f0160208091040260200160405190810160405280929190818152602001828054610f9c906125b8565b8015610fe95780601f10610fbe57610100808354040283529160200191610fe9565b820191906000526020600020905b815481529060010190602001808311610fcc57829003601f168201915b50505050509050600061100760408051602081019091526000815290565b90508051600003611019575092915050565b81511561104b5780826040516020016110339291906126c3565b60405160208183030381529060405292505050919050565b61105484611ad5565b949350505050565b6000600c5460ff166002811115611075576110756122ae565b146110c25760405162461bcd60e51b815260206004820152601d60248201527f50726f6a65637420737461747573206973206e6f74206f6e676f696e670000006044820152606401610602565b336000908152600e6020526040812080543492906110e190849061258c565b9250508190555034600b60008282546110fa919061258c565b909155505060405163474cf53d60e01b81526001600160a01b037f000000000000000000000000000000000000000000000000000000000000000081166004830152306024830152600060448301527f0000000000000000000000000000000000000000000000000000000000000000169063474cf53d9034906064016000604051808303818588803b15801561119057600080fd5b505af11580156111a4573d6000803e3d6000fd5b5050505050600a54600b541061120657600c805460ff191660011790556009546040514281526001600160a01b039091169030907f7fe4ff85792773156f00cea852020ab4b0005d70bd4231011a3b34dc519359109060200160405180910390a35b60405134815233907f906faaf913a60f38b5e8f2d6f5b163239bac2d994fa1a5d21751a51587a940579060200160405180910390a2565b600054610100900460ff161580801561125d5750600054600160ff909116105b806112775750303b158015611277575060005460ff166001145b6112da5760405162461bcd60e51b815260206004820152602e60248201527f496e697469616c697a61626c653a20636f6e747261637420697320616c72656160448201526d191e481a5b9a5d1a585b1a5e995960921b6064820152608401610602565b6000805460ff1916600117905580156112fd576000805461ff0019166101001790555b600980546001600160a01b0319166001600160a01b038716179055600a849055600c805460ff19169055600d6113338482612740565b5060405163095ea7b360e01b81526001600160a01b037f00000000000000000000000000000000000000000000000000000000000000008116600483015260001960248301527f0000000000000000000000000000000000000000000000000000000000000000169063095ea7b3906044016020604051808303816000875af11580156113c4573d6000803e3d6000fd5b505050506040513d601f19601f820116820180604052508101906113e89190612800565b50600880546001600160a01b0319166001600160a01b038416179055801561144a576000805461ff0019169055604051600181527f7f26b83ff96e1f2b6a682f133852f6798a09c465da95921460cefb38474024989060200160405180910390a15b5050505050565b6008546001600160a01b0316331480611482575061146d610ee1565b6001600160a01b0316336001600160a01b0316145b6114eb5760405162461bcd60e51b815260206004820152603460248201527f4f6e6c79207468652063726561746f72206f72206f776e65722063616e20696e6044820152731d985b1a59185d19481d1a19481c1c9bda9958dd60621b6064820152608401610602565b600c805460ff191660021790556008546000906001600160a01b0316330361151557506001611519565b5060025b6040805142815260ff8316602082015230917fd2746e4e1586847647872c733dc1b92891f2550b74cc8e392925502f781464bc9101610753565b6001600160a01b03918216600090815260066020908152604080832093909416825291909152205460ff1690565b61158961191e565b6001600160a01b0381166115ee5760405162461bcd60e51b815260206004820152602660248201527f4f776e61626c653a206e6577206f776e657220697320746865207a65726f206160448201526564647265737360d01b6064820152608401610602565b6115f78161197d565b50565b60006001600160e01b031982166380ac58cd60e01b148061162b57506001600160e01b03198216635b5e139f60e01b145b806105ac57506301ffc9a760e01b6001600160e01b03198316146105ac565b610f10828260405180602001604052806000815250611b49565b600061166f83611b7c565b600954611684906001600160a01b0316611c0f565b61168f600a54611b7c565b600d61169a86611b7c565b6040516020016116ae959493929190612890565b60405160208183030381529060405290506109278382611dfa565b6116d281611eb6565b6115f75760405162461bcd60e51b815260040161060290612675565b600081815260056020526040902080546001600160a01b0319166001600160a01b038416908117909155819061172382610e12565b6001600160a01b03167f8c5be1e5ebec7d5bd14f71427d1e84f3dd0314c0f7b2291e5b200ac8c7c3b92560405160405180910390a45050565b60008061176883610e12565b9050806001600160a01b0316846001600160a01b0316148061178f575061178f8185611553565b806110545750836001600160a01b03166117a8846107f0565b6001600160a01b031614949350505050565b826001600160a01b03166117cd82610e12565b6001600160a01b0316146117f35760405162461bcd60e51b815260040161060290612a92565b6001600160a01b0382166118555760405162461bcd60e51b8152602060048201526024808201527f4552433732313a207472616e7366657220746f20746865207a65726f206164646044820152637265737360e01b6064820152608401610602565b826001600160a01b031661186882610e12565b6001600160a01b03161461188e5760405162461bcd60e51b815260040161060290612a92565b600081815260056020908152604080832080546001600160a01b03199081169091556001600160a01b0387811680865260048552838620805460001901905590871680865283862080546001019055868652600390945282852080549092168417909155905184937fddf252ad1be2c89b69c2b068fc378daa952ba7f163c4a11628f55a4df523b3ef91a4505050565b33611927610ee1565b6001600160a01b031614610edf5760405162461bcd60e51b815260206004820181905260248201527f4f776e61626c653a2063616c6c6572206973206e6f7420746865206f776e65726044820152606401610602565b600080546001600160a01b038381166201000081810262010000600160b01b0319851617855560405193049190911692909183917f8be0079c531659141344cd1fd0a4f28419497f9722a3daafe3b4186f6b6457e091a35050565b816001600160a01b0316836001600160a01b031603611a355760405162461bcd60e51b815260206004820152601960248201527822a9219b99189d1030b8383937bb32903a379031b0b63632b960391b6044820152606401610602565b6001600160a01b03838116600081815260066020908152604080832094871680845294825291829020805460ff191686151590811790915591519182527f17307eab39ab6107e8899845ad3d59bd9653f200f220920489ca2b5937696c31910160405180910390a3505050565b611aad8484846117ba565b611ab984848484611ed3565b610f465760405162461bcd60e51b815260040161060290612ad7565b6060611ae0826116c9565b6000611af760408051602081019091526000815290565b90506000815111611b175760405180602001604052806000815250611b42565b80611b2184611b7c565b604051602001611b329291906126c3565b6040516020818303038152906040525b9392505050565b611b538383611fd4565b611b606000848484611ed3565b6109275760405162461bcd60e51b815260040161060290612ad7565b60606000611b89836120e1565b600101905060008167ffffffffffffffff811115611ba957611ba9612388565b6040519080825280601f01601f191660200182016040528015611bd3576020820181803683370190505b5090508181016020015b600019016f181899199a1a9b1b9c1cb0b131b232b360811b600a86061a8153600a8504945084611bdd57509392505050565b604080518082018252601081526f181899199a1a9b1b9c1cb0b131b232b360811b60208201528151602a80825260608281019094526001600160a01b0385169291600091602082018180368337019050509050600360fc1b81600081518110611c7a57611c7a612b29565b60200101906001600160f81b031916908160001a905350600f60fb1b81600181518110611ca957611ca9612b29565b60200101906001600160f81b031916908160001a90535060005b6014811015611df15782600485611cdb84600c61258c565b60208110611ceb57611ceb612b29565b1a60f81b6001600160f81b031916901c60f81c60ff1681518110611d1157611d11612b29565b01602001516001600160f81b03191682611d2c836002612b3f565b611d3790600261258c565b81518110611d4757611d47612b29565b60200101906001600160f81b031916908160001a9053508284611d6b83600c61258c565b60208110611d7b57611d7b612b29565b825191901a600f16908110611d9257611d92612b29565b01602001516001600160f81b03191682611dad836002612b3f565b611db890600361258c565b81518110611dc857611dc8612b29565b60200101906001600160f81b031916908160001a90535080611de98161259f565b915050611cc3565b50949350505050565b611e0382611eb6565b611e665760405162461bcd60e51b815260206004820152602e60248201527f45524337323155524953746f726167653a2055524920736574206f66206e6f6e60448201526d32bc34b9ba32b73a103a37b5b2b760911b6064820152608401610602565b6000828152600760205260409020611e7e8282612740565b506040518281527ff8e1a15aba9398e019f0b49df1a4fde98ee17ae345cb5f6b5e2c27f5033e8ce79060200160405180910390a15050565b6000908152600360205260409020546001600160a01b0316151590565b60006001600160a01b0384163b15611fc957604051630a85bd0160e11b81526001600160a01b0385169063150b7a0290611f17903390899088908890600401612b56565b6020604051808303816000875af1925050508015611f52575060408051601f3d908101601f19168201909252611f4f91810190612b93565b60015b611faf573d808015611f80576040519150601f19603f3d011682016040523d82523d6000602084013e611f85565b606091505b508051600003611fa75760405162461bcd60e51b815260040161060290612ad7565b805181602001fd5b6001600160e01b031916630a85bd0160e11b149050611054565b506001949350505050565b6001600160a01b03821661202a5760405162461bcd60e51b815260206004820181905260248201527f4552433732313a206d696e7420746f20746865207a65726f20616464726573736044820152606401610602565b61203381611eb6565b156120505760405162461bcd60e51b815260040161060290612bb0565b61205981611eb6565b156120765760405162461bcd60e51b815260040161060290612bb0565b6001600160a01b038216600081815260046020908152604080832080546001019055848352600390915280822080546001600160a01b0319168417905551839291907fddf252ad1be2c89b69c2b068fc378daa952ba7f163c4a11628f55a4df523b3ef908290a45050565b60008072184f03e93ff9f4daa797ed6e38ed64bf6a1f0160401b83106121205772184f03e93ff9f4daa797ed6e38ed64bf6a1f0160401b830492506040015b6d04ee2d6d415b85acef8100000000831061214c576d04ee2d6d415b85acef8100000000830492506020015b662386f26fc10000831061216a57662386f26fc10000830492506010015b6305f5e1008310612182576305f5e100830492506008015b612710831061219657612710830492506004015b606483106121a8576064830492506002015b600a83106105ac5760010192915050565b6001600160e01b0319811681146115f757600080fd5b6000602082840312156121e157600080fd5b8135611b42816121b9565b60005b838110156122075781810151838201526020016121ef565b50506000910152565b600081518084526122288160208601602086016121ec565b601f01601f19169290920160200192915050565b602081526000611b426020830184612210565b60006020828403121561226157600080fd5b5035919050565b80356001600160a01b038116811461227f57600080fd5b919050565b6000806040838503121561229757600080fd5b6122a083612268565b946020939093013593505050565b634e487b7160e01b600052602160045260246000fd5b60208101600383106122e657634e487b7160e01b600052602160045260246000fd5b91905290565b60008060006060848603121561230157600080fd5b61230a84612268565b925061231860208501612268565b9150604084013590509250925092565b60006020828403121561233a57600080fd5b611b4282612268565b80151581146115f757600080fd5b6000806040838503121561236457600080fd5b61236d83612268565b9150602083013561237d81612343565b809150509250929050565b634e487b7160e01b600052604160045260246000fd5b600067ffffffffffffffff808411156123b9576123b9612388565b604051601f8501601f19908116603f011681019082821181831017156123e1576123e1612388565b816040528093508581528686860111156123fa57600080fd5b858560208301376000602087830101525050509392505050565b6000806000806080858703121561242a57600080fd5b61243385612268565b935061244160208601612268565b925060408501359150606085013567ffffffffffffffff81111561246457600080fd5b8501601f8101871361247557600080fd5b6124848782356020840161239e565b91505092959194509250565b600080600080608085870312156124a657600080fd5b6124af85612268565b935060208501359250604085013567ffffffffffffffff8111156124d257600080fd5b8501601f810187136124e357600080fd5b6124f28782356020840161239e565b92505061250160608601612268565b905092959194509250565b6000806040838503121561251f57600080fd5b61252883612268565b915061253660208401612268565b90509250929050565b6020808252601f908201527f50726f6a65637420737461747573206973206e6f7420636f6d706c6574656400604082015260600190565b634e487b7160e01b600052601160045260246000fd5b808201808211156105ac576105ac612576565b6000600182016125b1576125b1612576565b5060010190565b600181811c908216806125cc57607f821691505b6020821081036125ec57634e487b7160e01b600052602260045260246000fd5b50919050565b6001600160a01b0393841681526020810192909252909116604082015260600190565b818103818111156105ac576105ac612576565b6020808252602d908201527f4552433732313a2063616c6c6572206973206e6f7420746f6b656e206f776e6560408201526c1c881bdc88185c1c1c9bdd9959609a1b606082015260800190565b602080825260189082015277115490cdcc8c4e881a5b9d985b1a59081d1bdad95b88125160421b604082015260600190565b600081516126b98185602086016121ec565b9290920192915050565b600083516126d58184602088016121ec565b8351908301906126e98183602088016121ec565b01949350505050565b601f82111561092757600081815260208120601f850160051c810160208610156127195750805b601f850160051c820191505b8181101561273857828155600101612725565b505050505050565b815167ffffffffffffffff81111561275a5761275a612388565b61276e8161276884546125b8565b846126f2565b602080601f8311600181146127a3576000841561278b5750858301515b600019600386901b1c1916600185901b178555612738565b600085815260208120601f198616915b828110156127d2578886015182559484019460019091019084016127b3565b50858210156127f05787850151600019600388901b60f8161c191681555b5050505050600190811b01905550565b60006020828403121561281257600080fd5b8151611b4281612343565b6000815461282a816125b8565b60018281168015612842576001811461285757612886565b60ff1984168752821515830287019450612886565b8560005260208060002060005b8581101561287d5781548a820152908401908201612864565b50505082870194505b5050505092915050565b7f7b226e616d65223a202250617274696369706174696f6e204365727469666963815264617465202360d81b6020820152600086516128d6816025850160208b016121ec565b7f222c20226465736372697074696f6e223a20224365727469666963617465206f6025918401918201527f662070617274696369706174696f6e20666f72207468652063726f776466756e60458201527f64696e672070726f6a656374222c202261747472696275746573223a205b7b2260658201527f74726169745f74797065223a20225265636569766572222c202276616c7565226085820152621d101160e91b60a582015286516129918160a8840160208b016121ec565b7f227d2c207b2274726169745f74797065223a202254617267657420416d6f756e60a892909101918201526d3a111610113b30b63ab2911d101160911b60c8820152612a86612a76612a70612a31612a2b6129ef60d687018c6126a7565b7f227d2c207b2274726169745f74797065223a202249504653204c696e6b222c20815269113b30b63ab2911d101160b11b6020820152602a0190565b8961281d565b7f227d2c207b2274726169745f74797065223a2022436f6e747269627574696f6e81526c111610113b30b63ab2911d101160991b6020820152602d0190565b866126a7565b63227d5d7d60e01b815260040190565b98975050505050505050565b60208082526025908201527f4552433732313a207472616e736665722066726f6d20696e636f72726563742060408201526437bbb732b960d91b606082015260800190565b60208082526032908201527f4552433732313a207472616e7366657220746f206e6f6e20455243373231526560408201527131b2b4bb32b91034b6b83632b6b2b73a32b960711b606082015260800190565b634e487b7160e01b600052603260045260246000fd5b80820281158282048414176105ac576105ac612576565b6001600160a01b0385811682528416602082015260408101839052608060608201819052600090612b8990830184612210565b9695505050505050565b600060208284031215612ba557600080fd5b8151611b42816121b9565b6020808252601c908201527f4552433732313a20746f6b656e20616c7265616479206d696e7465640000000060408201526060019056fea2646970667358221220f95becf8a1f693ef6005f4fd85fdc2bf09b4ef51b83c049b560282448bafe41f64736f6c63430008120033",
  "linkReferences": {},
  "deployedLinkReferences": {}
}